:020000040000FA
:04000000C4EF0DF04C
:08000800056ED8CF06F0E0CF31
:1000100007F00001E9CF0DF0EACF08F0E1CF09F0D9
:10002000E2CF0AF0D9CF0BF0DACF0CF0F3CF14F017
:10003000F4CF15F0FACF16F000C00FF001C010F0A9
:1000400002C011F003C012F004C013F09DAA2CEFFF
:1000500000F09EBA82EF02F00FC000F010C001F075
:1000600011C002F012C003F013C004F00E8E0DC0D8
:10007000E9FF08C0EAFF09C0E1FF0AC0E2FF0BC0C8
:10008000D9FF0CC0DAFF14C0F3FF15C0F4FF16C08F
:10009000FAFF055007C0E0FF06C0D8FF1000F2CFFE
:1000A0000EF0F29EF76AB80FF66E000EF722090006
:1000B000F5500EBEF28E120020202020202020209D
:1000C00020202020202020200000F2CF0EF0F29EE1
:1000D000F76AE40FF66E000EF7220900F5500EBE27
:1000E000F28E12002352454144520000F2CF0EF02E
:1000F000F29EF76A060FF66E010EF7220900F55020
:100100000EBEF28E1200235345544E410000F2CF32
:100110000EF0F29EF76A280FF66E010EF722090024
:10012000F5500EBEF28E1200234352454D4F000093
:10013000F2CF0EF0F29EF76A4A0FF66E010EF7222A
:100140000900F5500EBEF28E1200415420575200A5
:10015000F2CF0EF0F29EF76A6A0FF66E010EF722EA
:100160000900F5500EBEF28E120041542053480093
:10017000F2CF0EF0F29EF76A8A0FF66E010EF722AA
:100180000900F5500EBEF28E1200415420534C006F
:10019000F2CF0EF0F29EF76AAA0FF66E010EF7226A
:1001A0000900F5500EBEF28E12004154204E492037
:1001B00025730000F2CF0EF0F29EF76ACE0FF66EB6
:1001C000010EF7220900F5500EBEF28E12004154C6
:1001D00020444E2025730000F2CF0EF0F29EF76A05
:1001E000F20FF66E010EF7220900F5500EBEF28EE8
:1001F00012002352454144562A25732A25732A2585
:10020000642A25730D00F2CF0EF0F29EF76A200FDC
:10021000F66E020EF7220900F5500EBEF28E1200A5
:100220004154434E0D00F2CF0EF0F29EF76A400F9C
:10023000F66E020EF7220900F5500EBEF28E120085
:100240004D6F646F20636F6D616E646F2E2E2E0094
:10025000F2CF0EF0F29EF76A6A0FF66E020EF722E8
:100260000900F5500EBEF28E1200526573702052D6
:100270006563656269646100F2CF0EF0F29EF76A11
:10028000920FF66E020EF7220900F5500EBEF28EA6
:1002900012004D6F646F207472616E7370617265CD
:1002A0006E74652E2E2E0000F2CF0EF0F29EF76ACD
:1002B000C20FF66E020EF7220900F5500EBEF28E46
:1002C0001200536574616E646F2044657374696EC7
:1002D0006F2E2E2E0000F2CF0EF0F29EF76AF00F76
:1002E000F66E020EF7220900F5500EBEF28E1200D5
:1002F00044657374696E6F2053657461646F2E2E4C
:100300002E00F2CF0EF0F29EF76A1C0FF66E030E6F
:10031000F7220900F5500EBEF28E1200564F5520FE
:10032000454E564941522025642E2E2E0000F2CF14
:100330000EF0F29EF76A480FF66E030EF7220900E0
:10034000F5500EBEF28E1200454E564945492E2EEE
:100350002E00F2CF0EF0F29EF76A6C0FF66E030ECF
:10036000F7220900F5500EBEF28E1200536574613B
:100370006E646F204E6F6D652E2E2E00F2CF0EF044
:10038000F29EF76A960FF66E030EF7220900F550FB
:100390000EBEF28E12004E6F6D652053657461645F
:1003A0006F2E2E2E0000F2CF0EF0F29EF76AC00FD5
:1003B000F66E030EF7220900F5500EBEF28E120003
:1003C00047726176616E646F206461646F732E2E74
:1003D0002E00F2CF0EF0F29EF76AEC0FF66E030ECF
:1003E000F7220900F5500EBEF28E1200235245533B
:1003F0005052432A25730000F2CF0EF0F29EF76AA6
:10040000120FF66E040EF7220900F5500EBEF28EA2
:1004100012004C454954555241730000F2CF0EF082
:10042000F29EF76A360FF66E040EF7220900F550B9
:100430000EBEF28E1200496E696369616C697A6161
:100440006E646F2A2E2A0000F2CF0EF0F29EF76A39
:10045000620FF66E040EF7220900F5500EBEF28E02
:10046000120053494E4B0000F2CF0EF0F29EF76A95
:10047000820FF66E040EF7220900F5500EBEF28EC2
:10048000120073656E6861009EAAFED7ABCF19F0AB
:10049000AECF01F019A202D0AB98AB8869EF02F0A1
:1004A00001010D51016A0C5D03E20CC100F00CD09A
:1004B000006A080E0E6F0C3700360D51005CD8B084
:1004C000006E01360E2FF7D70001000C9EAA18D03F
:1004D000DBD701C009F1036A7051200FE96E000EED
:1004E0000320EA6E09C1EFFF010E702501010B6FB9
:1004F0000C6F320E0D6F0001D3DF00C070F0E6D735
:1005000083EF02F0E3D79E9A2CEF00F088C0EAFF59
:1005100087C0E9FFCFC0EFFFE92AD8B4EA2AEF6A23
:10052000872BD8B4882B000C716B706B886B720EA4
:10053000876FCE6BCE51C9DDCE2B006ECF6FE6DF5D
:10054000060ECE5DF7E1886B790E876FCE6BCE51CC
:10055000CDDDCE2B006ECF6FD9DF060ECE5DF7E17D
:10056000886B800E876FCE6BCE51D1DDCE2B006EA7
:10057000CF6FCCDF060ECE5DF7E1E3EF0DF0CE6B73
:10058000CE5131080AE3036ACE51200FE96E000E06
:100590000320EA6EEF6ACE2BF3D7716B706BE5EF39
:1005A0000DF0EA6AE80EE96EEF500DE0060E016EFE
:1005B000006A002EFED7012EFBD77B0E006E002EA8
:1005C000FED7EF2EF3D7000C080EEB6FEA6BEA5163
:1005D000070826E3EB07E8C000F0EA51016E04E0EB
:1005E000D8900032012EFCD700A00CD0010E006E76
:1005F000EB51016E04E0D8900036012EFCD700507C
:10060000E9130CD0010E006EEB51016E04E0D8909E
:100610000036012EFCD70050FF0AE917EA2BD7D786
:10062000E9C001F017EF03F0E7C0E8F0CDD701C053
:10063000E7F0956AE7C08CFF010EE86FB2DF939692
:100640008A86000093968A960000000C939A8A9AF4
:10065000E42D02D0939A8A8A000093968A9600002D
:1006600093968A96E539E66F0F0EE617E6C0E7F037
:10067000DBDFE5510F0BE66FE76FD6DF000CE12DF6
:1006800001D003D0400EE26F01D0E26B010EE05DBD
:10069000E227E2518009E36FE46BE56FD7DF000CDE
:1006A000939A8A9A93988A98956A8C6AC80EE86F8A
:1006B00078DF956A8C6A956A8C6A93968A860A0EA8
:1006C000E86F6FDF93968A960A0EE86F6ADF956A85
:1006D000400E8C6E93968A860A0EE86F62DF9396C0
:1006E0008A960A0EE86F5DDF956A400E8C6E9396CF
:1006F0008A860A0EE86F55DF93968A960A0EE86F8F
:1007000050DF956A100E8C6E93968A860A0EE86FFB
:1007100048DF93968A960A0EE86F43DF956A8C6AE3
:1007200093968A860A0EE86F3CDF93968A960A0EA5
:10073000E86F37DF956AF00E8C6E93968A860A0E04
:10074000E86F2FDF93968A960A0EE86F2ADF956A84
:100750008C6A93968A860A0EE86F23DF93968A96B0
:100760000A0EE86F1EDF956A800E8C6E93968A865D
:100770000A0EE86F16DF93968A960A0EE86F11DF6D
:10078000956A8C6A93968A860A0EE86F0ADF9396BA
:100790008A960A0EE86F05DF956A600E8C6E939656
:1007A0008A860A0EE86FFDDE93968A960A0EE86F37
:1007B000F8DE010EE06FE16F62DFE7EF0DF0DF5171
:1007C0000C0A05E0060A0BE0020A0FE013D0E46B06
:1007D000010EE56F3BDF020EE86FE3DE11D0010E84
:1007E000E06F020EE16F4BDF0BD0E46B100EE56F94
:1007F0002DDF06D0010EE46FDFC0E5F027DF00D06B
:10080000000C010EE06FE16F3ADFDD6BDD5147DC7C
:10081000DD2B006EDF6FD3DF100EDD5DF7E122EF21
:1008200004F0010EE06F020EE16F29DFDD6BDD5198
:1008300036DCDD2B006EDF6FC2DF100EDD5DF7E111
:10084000000CDFD7EEDF000C040EDD6FFA0EE86F50
:10085000A8DEDD2FFBD72B0E9EA8FED7AD6E2B0E8C
:100860009EA8FED7AD6E2B0E9EA8FED7AD6E040ED1
:10087000DD6FFA0EE86F95DEDD2FFBD75CEF05F03C
:10088000FE6BFE511D080AE3036AFE51520FE96E2A
:10089000000E0320EA6EEF6AFE2BF3D7C0EF04F0E0
:1008A000FFC003F1FEC002F101C103F0010100C16C
:1008B000E9FF01C1EAFFEF5218E000C1E9FF01C101
:1008C000EAFFEFCF06F103C1EAFF02C1E9FF06C16B
:1008D000EFFF03C103F00251022BD8B4032B002B0E
:1008E000D8B4012B0001E0D7010100C1E9FF01C12B
:1008F000EAFFEFCF06F103C1EAFF02C1E9FF06C13B
:10090000EFFF0001FEC001F0FFC002F0000CFD6B24
:1009100071C0DEF0036ADE51200FE96E000E032085
:10092000EA6EEF5266E0036ADE51200FE96E000EB8
:100930000320EA6EEF500D082FE1036ADE51200F0D
:10094000E96E000E0320EA6EEF6A036AFD51DF0FC5
:10095000E96E000E0320EA6EEF6A010EDE25FF6FDE
:10096000186AF2BE188EF29EE8CF0CF1320E010129
:100970000D6F000195DD18BEF28E00C071F080D7BA
:10098000FF6B520EFE6F0101016BDF0E006F000165
:1009900087DF010E016E2FD0036AFD51DF0F016E5C
:1009A000000E032203C0FFF0036ADE51200FE96E40
:1009B000000E0320EA6EEFCF00F10101FFC0EAFF55
:1009C00001C0E9FF00C1EFFF0001FD2B010EDE2594
:1009D000FF6F186AF2BE188EF29EE8CF0CF1320E4D
:1009E00001010D6F00015CDD18BEF28E00C0DEF06B
:1009F00091D7000E016E000CDD6B89DF012C01D058
:100A000008D0DD51C70805E3640EE86FCADDDD2BB1
:100A1000F4D7000CDDC0E9FFDEC0EAFFEFCFE1F064
:100A2000E0C003F0DFC0E9FFE0C0EAFFEF50E15DA6
:100A300015E1DEC003F0DDC0E9FF03C0EAFFEF52BD
:100A400003E1000E016E1FD0DEC003F0DD51DD2B8F
:100A5000D8B4DE2BDF2BD8B4E02BDCD7DEC003F01C
:100A6000DDC0E9FFDEC0EAFFEFCFE1F0E0C003F058
:100A7000DFC0E9FFE0C0EAFFEF50E15D02E2FF0EF8
:100A800001D0010E016E000CDCDE010EE06FE16FA3
:100A9000F6DDDD6BDD5113EC01F0DD2B006EDF6F59
:100AA0008EDE0F0EDD5DF6E1040EDD6FFA0EE86FEF
:100AB00078DDDD2FFBD7C8D69FDFC3DE010EE06FE8
:100AC000E16FDDDDDD6BDD5128EC01F0DD2B006E2B
:100AD000DF6F75DE0D0EDD5DF6E1010EE06F020EDB
:100AE000E16FCDDDEA6A520EE96E000EEF100FE005
:100AF000EACFDEF0E9CFDDF0EFCFDFF060DEDEC081
:100B0000EAFFDDC0E9FFE92AD8B4EA2AEED7040EED
:100B1000DD6FFA0EE86F45DDDD2FFBD7DE6B520E81
:100B2000DD6FE06B9D0EDF6F75DF0152ADE1000CF4
:100B3000CE6BCE51A8EC00F0CE2B006E00509EA8DC
:100B4000FED7AD6E050ECE5DF4E10D0E9EA8FED76C
:100B5000AD6E34EF0EF0CE6BCE51B8EC00F0CE2B74
:100B6000006E00509EA8FED7AD6E050ECE5DF4E17E
:100B70000D0E9EA8FED7AD6E4AEF0EF0DD6BDD5177
:100B800003EC01F0DD2B006E00509EA8FED7AD6E89
:100B9000050EDD5DF4E1E5EF05F053DE010EE06FDB
:100BA000E16F6DDDDD6BDD513CEC01F0DD2B006EA6
:100BB000DF6F05DE140EDD5DF6E1040EDD6FFA0E6B
:100BC000E86FEFDCDD2FFBD7D9D716DF3ADE010E59
:100BD000E06FE16F54DDDD6BDD5128EC01F0DD2BC2
:100BE000006EDF6FECDD0D0EDD5DF6E1010EE06FF6
:100BF000020EE16F44DDEA6A520EE96E000EEF105C
:100C00000FE0EACFDEF0E9CFDDF0EFCFDFF0D7DDA8
:100C1000DEC0EAFFDDC0E9FFE92AD8B4EA2AEED750
:100C2000040EDD6FFA0EE86FBCDCDD2FFBD7DE6B48
:100C3000520EDD6FE06B9D0EDF6FECDE015207E0C0
:100C4000080EDD6FFA0EE86FACDCDD2FFBD7000C71
:100C5000D16BD151DAEC00F0D12B006E00509EA880
:100C6000FED7AD6E060ED15DF4E1D0C0EAFFCFC075
:100C7000E9FF000EEF1008E0EF509EA8FED7AD6E22
:100C8000E92AD8B4EA2AF5D70D0E9EA8FED7AD6E94
:100C900066EF06F0F9DED5DD010EE06FE16FEFDC07
:100CA000CF6BCF5154EC01F0CF2B006EDF6F87DD9F
:100CB000120ECF5DF6E1040ECF6FFA0EE86F71DC15
:100CC000CF2FFBD7D06BA00ECF6FC2D795DEB9DD8B
:100CD000010EE06FE16FD3DCCF6BCF516BEC01F015
:100CE000CF2B006EDF6F6BDD110ECF5DF6E1010ED5
:100CF000E06F020EE16FC3DCEA6A520EE96E000E8D
:100D0000EF100FE0EACFD0F0E9CFCFF0EFCFDFF078
:100D100056DDD0C0EAFFCFC0E9FFE92AD8B4EA2AFD
:100D2000EED7040ECF6FFA0EE86F3BDCCF2FFBD768
:100D3000DE6B520EDD6FE06B9D0EDF6F6BDE0152DE
:100D4000AAE1000CC090C082C094C08EC280C15085
:100D5000C00B0409C16EA5EF0EF0ED6BEE6B010E3A
:100D6000EF6FDA6AD96AF26BE50EF16FEA6AE90EA3
:100D7000E96EF2C0E2FFF1C0E1FFEFC0F0F0D89001
:100D8000E550EE02F350ED23F450EE23F02FF7D7A9
:100D9000EDC0DEFFEEC0EDF0EE6BD8B0EE2BF12B28
:100DA000D8B4F22BEF2BEF510508E0E15AEF07F032
:100DB000EC51F019800BF66FECAF0BD0E91FEA1F76
:100DC000EB1FEC1FE92BD8B4EA2BD8B4EB2BD8B42B
:100DD000EC2BF0AF0BD0ED1FEE1FEF1FF01FED2B34
:100DE000D8B4EE2BD8B4EF2BD8B4F02B006A016A3C
:100DF000026A036AF16BF26BF36BF46BF051EF1163
:100E0000EE11ED112CE0200EF56FD890E937EA379E
:100E1000EB37EC37F137F237F337F437F051F45D55
:100E200008E1EF51F35D05E1EE51F25D02E1ED51B4
:100E3000F15D0FE3ED51F15FEE51D8A0EE3DF25FB1
:100E4000EF51D8A0EF3DF35FF051D8A0F03DF45F33
:100E5000D8800036013602360336F52FD6D7F6AFE6
:100E60000BD0001E011E021E031E002AD8B4012A48
:100E7000D8B4022AD8B4032AEA6AF10EE96E000C4B
:100E8000010EDD6FDE6BDF6BE06BE26BE36BD9BFF6
:100E900001D018D0010EE26FD9C0E8F0D8C0E7F059
:100EA000D7C0E6F0D6C0E5F0FF0EEC6FEB6FEA6F4F
:100EB000E96F53D703C0D9F002C0D8F001C0D7F012
:100EC00000C0D6F0DD5306E1DE5304E1DF5302E15A
:100ED000E05373E0D9C0ECF0D8C0EBF0D7C0EAF033
:100EE000D6C0E9F0F06BEF6BEE6BDAC0EDF060DFCF
:100EF00003C0E0F002C0DFF001C0DEF000C0DDF0B2
:100F0000036AE351DB25016EDC51032201C0E5F0E9
:100F100003C0E6F0EACFE8F0E9CFE7F0D9C0ECF0A3
:100F2000D8C0EBF0D7C0EAF0D6C0E9F0F06BEF6BB9
:100F3000EE6BDAC0EDF03CDFEFCF00F0ECCF01F06C
:100F4000ECCF02F0ECCF03F0E8C0EAFFE7C0E9FF26
:100F500003C0ECF002C0EBF001C0EAF000C0E9F021
:100F6000300E0024006E000E0120000E0220000E44
:100F70000320E6C0EAFFE5C0E9FF00C0EFFF036A17
:100F8000E351DB25E96EDC510320EA6EEF503908AE
:100F90000AE2036AE351DB25E96EDC510320EA6EC5
:100FA000070EEF24EF6EE32BE0C0D9F0DFC0D8F0DE
:100FB000DEC0D7F0DDC0D6F085D7E22D0AD0036AB7
:100FC000E351DB25E96EDC510320EA6E2D0EEF6E56
:100FD000E32BE16BD890E331E15D2FE2036AE1514D
:100FE000DB25E96EDC510320EA6EEFCFE4F0036A03
:100FF000E151DB25016EDC51032203C0E6F0E15133
:10100000E35DFF0F036ADB25E96EDC510320EA6E26
:10101000EFCFE9F0E6C0EAFF01C0E9FFE9C0EFFF6A
:10102000E151E35DFF0F036ADB25E96EDC5103202C
:10103000EA6EE4C0EFFFE12BCDD7036AE351DB2575
:10104000E96EDC510320EA6EEF6ADBC001F0DCC020
:1010500002F050EF08F0CF35006E0036FC0E00169F
:10106000C250C30B0010C26E320EE86FD1EC02F01A
:10107000C282C2B2FED7C3CFD2F0C4CFD3F0D46BFA
:10108000D56BD5C0D9F0D4C0D8F0D3C0D7F0D2C07A
:10109000D6F00A0EDA6FD1C0DCF0D0C0DBF0F0D6AB
:1010A000000CCE35006E0036FC0E0016C250C30B8D
:1010B0000010C26E320EE86FD1EC02F0D0C003F027
:1010C000CFC0E9FFD0C0EAFFC282C2B2FED7C3CF11
:1010D000EFFFC4CFECFFEC6AEC6AF3EF0EF0006AAE
:1010E000016A026A036AE26BE36BE46BE56BE15150
:1010F000E011DF11DE112CE0200EE66FD890DA3718
:10110000DB37DC37DD37E237E337E437E537E1510A
:10111000E55D08E1E051E45D05E1DF51E35D02E1F9
:10112000DE51E25D0FE3DE51E25FDF51D8A0DF3D2B
:10113000E35FE051D8A0E03DE45FE151D8A0E13D9C
:10114000E55FD8800036013602360336E62FD6D763
:10115000EA6AE20EE96E000CE950D26F3B0ED96FDD
:101160009A0ED86FCA0ED76FD66B0A0ED46FD1C045
:10117000DDF0D0C0DCF0CFC0DBF0CEC0DAF0D9C0FB
:10118000E1F0D8C0E0F0D7C0DFF0D6C0DEF0A7DFD6
:101190000150EFCFCEF0ECCFCFF0ECCFD0F0ECCFD2
:1011A000D1F000520FE1D451010A0CE0D2510BE012
:1011B0000F0BD45D01E00DE2D2BF0BD0D2BD03D046
:1011C000200E02D0D26B300E002600C0DFF0DFEC24
:1011D00003F0D9C0DDF0D8C0DCF0D7C0DBF0D6C05A
:1011E000DAF0E16BE06BDF6B0A0EDE6F78DF03C0D5
:1011F000D9F002C0D8F001C0D7F000C0D6F0D42F8B
:10120000B6D707EF0FF0DB6BDA6BDA5109080AE3A8
:10121000036ADA51D00FE96E000E0320EA6EEF6A1E
:10122000DA2BF3D7DA6BDA5109083FE3036ADA51B4
:10123000520FE96E000E0320EA6EEF5208E1CEC0B5
:10124000E9FFCFC0EAFF030EEF6E9FD02CD0036AF8
:10125000DA51520FE96E000E0320EA6EEF502A08B1
:101260000BE1036ADA51D00FE96E000E0320EA6E3B
:10127000EF6ADA2B1AD017D0036ADA51D00F016E59
:10128000000E032203C0DDF0036ADA51520FE96E4B
:10129000000E0320EA6EEFCFDEF0DDC0EAFF01C0F2
:1012A000E9FFDEC0EFFFDA2BBED7DE6BD00EDD6FBD
:1012B000E06B720EDF6F0AEC05F0015206E1CEC062
:1012C000E9FFCFC0EAFFEF6A29D0DE6BD00EDD6FF9
:1012D000E06B790EDF6F0AEC05F0015207E1CEC03A
:1012E000E9FFCFC0EAFF010EEF6E18D0DE6BD00E23
:1012F000DD6FE06B800EDF6F0AEC05F0015207E155
:10130000CEC0E9FFCFC0EAFF020EEF6E07D0CEC01D
:10131000E9FFCFC0EAFF030EEF6E37D0DA511D08A8
:1013200034E3036ADA51520FE96E000E0320EA6ECD
:10133000EF500D0809E0036ADA51520FE96E000E12
:101340000320EA6EEF5202E120D01DD0036ADB5188
:10135000010F016E000E03220150CE25016ECF5108
:10136000032203C0DDF0036ADA51520FE96E000E6A
:101370000320EA6EEFCFDEF0DDC0EAFF01C0E9FF37
:10138000DEC0EFFFDB2BDA2BC9D710EF0FF0006ABE
:10139000016AD651D890D7B1002600320132D7B3B6
:1013A000002600320132D7B5002600320132D7B70D
:1013B000002600320132D7B9002600320132D7BBF5
:1013C000002600320132D7BD002600320132D7BFDD
:1013D00000260032013259EF0AF0D46BD26B0A0EAC
:1013E000D36FD16BCF51D01103E1000E016EC1D08C
:1013F000D451D42B036ACF25E96ED0510320EA6E75
:10140000EFCFD5F0D5512D080DE1010ED26FD4519B
:10141000D42B036ACF25E96ED0510320EA6EEFCFBB
:10142000D5F00DD0D5512B080AE1D451D42B036A45
:10143000CF25E96ED0510320EA6EEFCFD5F0D5511C
:101440002F08D8B08ED0D5513908D8A08AD0D55120
:10145000300821E1036AD451CF25E96ED051032031
:10146000EA6EEF5078080AE0036AD451CF25E96E9E
:10147000D0510320EA6EEF5058080DE1100ED36FE3
:10148000D42BD451D42B036ACF25E96ED05103203D
:10149000EA6EEFCFD5F0D3510A081BE1D5512F08E2
:1014A00017E2D551390814E30A0ED66FD1C0D7F030
:1014B0006ED7300ED55D0124D16FD451D42B036A81
:1014C000CF25E96ED0510320EA6EEFCFD5F0E6D7F5
:1014D00048D0D351100845E1D551600806E2D551F6
:1014E0007A0803E3D551DF0B01D0D551D56FD55123
:1014F0002F0803E2D551390806E2D551400831E200
:10150000D55146082EE3D5512F080CE2D5513908A4
:1015100009E3D139D66FF00ED617300ED55DD6253A
:10152000D16F09D0D139D66FF00ED617410ED55DE7
:101530000A0FD625D16FD451D42B036ACF25E96E7B
:10154000D0510320EA6EEFCFD5F0D551600806E206
:10155000D5517A0803E3D551DF0B01D0D551D56FB2
:10156000C6D7D22D04D0D3510A0801E1D16DD1C024
:1015700001F009EF0CF0200ED1A9300ED26FD0C0CF
:1015800000F0D0AF07D0001E002A00C0D0F02D0E12
:10159000D26FD18F0150186AF2BE188EF29ED0C061
:1015A0000CF1640E01010D6F000150EC02F018BE49
:1015B000F28E00C0D0F0300E0124D36F186AF2BE54
:1015C000188EF29ED0C00CF10A0E01010D6F0001C1
:1015D00050EC02F018BEF28E300E0024D56F300EA3
:1015E0000124D46FD2C000F0D1A702D0D1AFD195E1
:1015F000D1B90BD0D1AF22D0D1B520D000C0D3F01B
:10160000D1B31CD000C0D4F019D0300ED35D16E198
:1016100000C0D3F0200ED26FD1A704D0D195D183D2
:10162000D1AFD193300ED45D09E100C0D4F0200ECB
:10163000D36FD1A7F7D7D193D1AFD191D1A504D092
:10164000D2C0DFF0DFEC03F0D1A304D0D3C0DFF0D1
:10165000DFEC03F0D1A104D0D4C0DFF0DFEC03F065
:10166000D5C0DFF0DFEC03F02BEF0CF0200EDDA98E
:10167000300EDE6FDCC000F0DCAF07D0001E002AA9
:1016800000C0DCF02D0EDE6FDD8F0150186AF2BE57
:10169000188EF29EDCC00CF1640E01010D6F00018A
:1016A00050EC02F018BEF28E00C0DCF0300E0124C7
:1016B000DF6F186AF2BE188EF29EDCC00CF10A0EC3
:1016C00001010D6F000150EC02F018BEF28E300ED9
:1016D0000024E16F300E0124E06FDEC000F0DDA7D2
:1016E00002D0DDAFDD95DDB90BD0DDAF22D0DDB5A9
:1016F00020D000C0DFF0DDB31CD000C0E0F019D076
:10170000300EDF5D16E100C0DFF0200EDE6FDDA7DA
:1017100004D0DD95DD83DDAFDD93300EE05D09E1C2
:1017200000C0E0F0200EDF6FDDA7F7D7DD93DDAF5F
:10173000DD91DDA504D0DE519EA8FED7AD6EDDA300
:1017400004D0DF519EA8FED7AD6EDDA104D0E051DC
:101750009EA8FED7AD6EE1519EA8FED7AD6EECEF10
:101760000BF0010ED325D66FD76BD751ECEC00F000
:10177000D72B006E00509EA8FED7AD6E070ED75D2A
:10178000F4E1D0C0EAFFCFC0E9FF000EEF1008E09F
:10179000EF509EA8FED7AD6EE92AD8B4EA2AF5D755
:1017A0002A0E9EA8FED7AD6ED2C0EAFFD1C0E9FFD7
:1017B000000EEF1008E0EF509EA8FED7AD6EE92AAC
:1017C000D8B4EA2AF5D72A0E9EA8FED7AD6ED6C0A9
:1017D000DCF01F0EDD6F4AD72A0E9EA8FED7AD6E35
:1017E000D5C0EAFFD4C0E9FF000EEF1008E0EF50CB
:1017F0009EA8FED7AD6EE92AD8B4EA2AF5D70D0E19
:101800009EA8FED7AD6E4BEF0CF0D06BB10ECF6F34
:10181000E4D501C0CEF0010ECE5FCEC0CFF0D16BCB
:10182000C40ED06F18DC21EC04F0010EE06FE16F04
:101830003FEC03F0CF6BCF5181EC01F0CF2B006E6A
:10184000DF6FDFEC03F00B0ECF5DF5E1CEC0D0F023
:101850001F0ED16F90D62E0EDF6FDFEC03F02E0E31
:10186000DF6FDFEC03F02E0EDF6FDFEC03F0040E12
:10187000CF6FFA0EE86FD1EC02F0CF2FFAD7D06B12
:10188000890ECF6FD26B930ED16FCEC0D3F0D56BD4
:10189000C40ED46F66D721EC04F0010EE06FE16F47
:1018A0003FEC03F0CF6BCF5197EC01F0CF2B006EE4
:1018B000DF6FDFEC03F0090ECF5DF5E1040ECF6FB3
:1018C000FA0EE86FD1EC02F0CF2FFAD7010EAF2756
:1018D000AF51640803E1AF6B4AEC06F0000C21EC59
:1018E00004F0010EE06FE16F3FEC03F0CE6BCE51E0
:1018F000FCEC01F0CE2B006EDF6FDFEC03F0080E86
:10190000CE5DF5E1000CD06BD051C8EC00F0D02BCF
:10191000006E00509EA8FED7AD6E060ED05DF4E1BD
:10192000CFC0EAFFCEC0E9FF000EEF1008E0EF5095
:101930009EA8FED7AD6EE92AD8B4EA2AF5D70D0ED7
:101940009EA8FED7AD6ED9EF0CF0CE6BCE5198ECC1
:1019500000F0CE2B006E00509EA8FED7AD6E050E97
:10196000CE5DF4E10D0E9EA8FED7AD6E38EF0DF002
:1019700044EC05F021EC04F0010EE06FE16F3FEC68
:1019800003F0CE6BCE51A9EC01F0CE2B006EDF6FD1
:10199000DFEC03F00F0ECE5DF5E1040ECE6FFA0E14
:1019A000E86FD1EC02F0CE2FFAD7CF6BB10ECE6F2D
:1019B000AAD7FCEC04F021EC04F0010EE06FE16F1B
:1019C0003FEC03F0CE6BCE51BEEC01F0CE2B006E9F
:1019D000DF6FDFEC03F00E0ECE5DF5E1010EE06F80
:1019E000020EE16F3FEC03F0EA6A520EE96E000E60
:1019F000EF1010E0EACFCFF0E9CFCEF0EFCFDFF07D
:101A0000DFEC03F0CFC0EAFFCEC0E9FFE92AD8B48B
:101A1000EA2AEDD7040ECE6FFA0EE86FD1EC02F091
:101A2000CE2FFAD7DE6B520EDD6FE06B9D0EDF6FAF
:101A30000AEC05F001529EE121EC04F0010EE06F8A
:101A4000E16F3FEC03F0CE6BCE51D3EC01F0CE2B27
:101A5000006EDF6FDFEC03F0110ECE5DF5E1040EDA
:101A6000CE6FFA0EE86FD1EC02F0CE2FFAD76DD719
:101A7000FCEC04F021EC04F0010EE06FE16F3FECB0
:101A800003F0CE6BCE5128EC01F0CE2B006EDF6F51
:101A9000DFEC03F00D0ECE5DF5E1010EE06F020EFE
:101AA000E16F3FEC03F0EA6A520EE96E000EEF10B0
:101AB00010E0EACFCFF0E9CFCEF0EFCFDFF0DFECF0
:101AC00003F0CFC0EAFFCEC0E9FFE92AD8B4EA2A82
:101AD000EDD7040ECE6FFA0EE86FD1EC02F0CE2FE8
:101AE000FAD7DE6B520EDD6FE06B9D0EDF6F0AECF6
:101AF00005F00152A1E1080ECE6FFA0EE86FD1ECAD
:101B000002F0CE2FFAD71BEF0FF044EC05F0EA6A93
:101B1000B10EE96E000EEF1008E0EF509EA8FED760
:101B2000AD6EE92AD8B4EA2AF5D70D0E9EA8FED7E5
:101B3000AD6EFCEC04F0EA6ACE0EE96EE26A520E7B
:101B4000E16EE752E6CFEEFFFCE1CDEC05F0DD6B98
:101B5000DD51E9EC01F0DD2B006E00509EA8FED7B0
:101B6000AD6E080EDD5DF4E1EA6ACE0EE96E000EA0
:101B7000EF1008E0EF509EA8FED7AD6EE92AD8B46A
:101B8000EA2AF5D71EEF0FF0F86AD09E0D8EEA6AAA
:101B9000E96AB886080EAF6E020EB06EA60EAC6E85
:101BA000900EAB6EC150C00B0F09C16E070EB46E24
:101BB000196A1A6A1B6A876B886BAF6BC00EF212C8
:101BC0009D8A94EF02F0BFEF02F050EF03F021EC9A
:101BD00004F0010EE06FE16F3FEC03F0CE6BCE51ED
:101BE0000EEC02F0CE2B006EDF6FDFEC03F0100E78
:101BF000CE5DF5E1140ECE6FFA0EE86FD1EC02F077
:101C0000CE2FFAD7010EE06FE16F3FEC03F0886B47
:101C10009D0E876F4F0ECF6F86EC02F04B0ECF6F8D
:101C200086EC02F0886BA00E876FCE6BCE5124EC51
:101C300002F0CE2B006ECF6F86EC02F0040ECE5D6C
:101C4000F5E1886BA50E876FCE6BCE5134EC02F0B8
:101C5000CE2B006ECF6F86EC02F0050ECE5DF5E167
:101C600044EC05F098EF05F0020ECE6FFA0EE86F27
:101C7000D1EC02F0CE2FFAD7FCEC04F0FF6B890E0A
:101C8000FE6F0101016B520E006F000150EC04F079
:101C9000ABEF05F0020ECE6FFA0EE86FD1EC02F05A
:101CA000CE2FFAD7FCEC04F0FF6B930EFE6F010110
:101CB000016B520E006F000150EC04F021EC04F0B7
:101CC000010EE06FE16F3FEC03F0EA6A890EE96E06
:101CD000000EEF1010E0EACFCFF0E9CFCEF0EFCF5B
:101CE000DFF0DFEC03F0CFC0EAFFCEC0E9FFE92A66
:101CF000D8B4EA2AEDD7010EE06F020EE16F3FEC97
:101D000003F0EA6A930EE96E000EEF1010E0EACFDE
:101D1000CFF0E9CFCEF0EFCFDFF0DFEC03F0CFC0B4
:101D2000EAFFCEC0E9FFE92AD8B4EA2AEDD7040ECB
:101D3000CE6FFA0EE86FD1EC02F0CE2FFAD7CDECD1
:101D400005F04AEC06F0A2EF06F021EC04F0010EDB
:101D5000E06FE16F3FEC03F0CE6BCE51FCEC01F095
:101D6000CE2B006EDF6FDFEC03F0080ECE5DF5E1E9
:101D7000040ECE6FFA0EE86FD1EC02F0CE2FFAD738
:101D800011EC04F0CF6BD16BC40ED06F2BEC08F0CC
:101D9000010EE06F020EE16F3FEC03F0EA6AC40E41
:101DA000E96E000EEF1010E0EACFCFF0E9CFCEF0F1
:101DB000EFCFDFF0DFEC03F0CFC0EAFFCEC0E9FFEA
:101DC000E92AD8B4EA2AEDD7200EDF6FDFEC03F062
:101DD0002D0EDF6FDFEC03F0010ECE6FD06BC00E67
:101DE000CF6F51EF08F02D0EDF6FDFEC03F0200E08
:101DF000DF6FDFEC03F0410EE96EC3C0D1F0C2C06B
:101E0000D0F0C1C0CFF0C0C0CEF0ACEF08F087EC8E
:101E100004F0012C15D0CF6BB00ECE6F03EF09F09C
:101E2000B05105E0010A06E0030A07E009D0EDDC45
:101E300056DD06D09DD553DD03D067D650DD00D0EA
:101E4000C3530BE1C25309E1C151010806E303E1A9
:101E5000C051F30802E3D9DC42DD040ECE6FFA0E66
:0E1E6000E86FD1EC02F0CE2FFAD78AD703003C
:020000040030CA
:0E000000200C181E008301000FC00FE00F40FF
:00000001FF
;PIC18F4550
